S00F000073756D6F5F76312E737265634B
S113000012C02CC02BC02AC029C028C027C026C0BB
S113001025C024C023C022C021C020C01FC01EC0D0
S11300201DC01CC01BC011241FBECFE5D4E0DEBF21
S1130030CDBF10E0A0E6B0E0E2ECF6E002C005902F
S11300400D92A036B107D9F710E0A0E6B0E001C0E8
S11300501D92AC36B107E1F7F7D231C3D1CFB99ACB
S113006088EE93E097BD86BD8FB580688FBD8FB550
S113007082608FBD8EB588618EBD8EB582608EBD67
S1130080089587B93E9A3D9886B1876086B9379AB4
S113009024B135B1932F80E0820F911D369A3699A1
S11300A0FECF08953D9886B1876086B9379A089542
S11300B087B93E9A369A3699FECF24B135B1932F3B
S11300C080E0820F911D0895909A0895919A089561
S11300D082B382BB0895939A0895929A089582B345
S11300E082BB089512BA08958091640090916500CE
S11300F01816190604F18091680090916900181689
S11301001906CCF0809162009091630018161906CC
S113011094F48091600090916100181619065CF0C7
S113012080916A0090916B001816190624F0DADFAA
S1130130CBDFD1DF0895809164009091650018169B
S11301401906FCF080916800909169001816190650
S1130150C4F08091620090916300181619068CF423
S113016080916000909161001816190654F48091F2
S11301706A0090916B00181619061CF0B3DFA4DF17
S11301800895809164009091650018161906FCF09A
S1130190809168009091690018161906C4F4809142
S11301A0620090916300181619068CF48091600027
S11301B0909161001816190654F080916A0090918C
S11301C06B00181619061CF08DDF85DF08958091E9
S11301D064009091650018161906FCF0809168007F
S11301E09091690018161906C4F4809162009091E8
S11301F06300181619068CF08091600090916100DC
S11302001816190654F080916A0090916B00181624
S113021019061CF067DF5FDF0895809164009091F8
S1130220650018161906FCF0809168009091690029
S113023018161906C4F08091620090916300181694
S113024019068CF0809160009091610018161906CF
S113025054F480916A0090916B00181619061CF0F2
S113026041DF32DF08958091640090916500181693
S11302701906FCF08091680090916900181619061F
S1130280C4F08091620090916300181619068CF0F6
S113029080916000909161001816190654F08091C5
S11302A06A0090916B00181619061CF41BDF13DF0B
S11302B00895809164009091650018161906FCF465
S11302C0809168009091690018161906C4F0809115
S11302D0620090916300181619068CF080916000FA
S11302E0909161001816190654F080916A0090915B
S11302F06B00181619061CF0F5DEE6DE08958091F1
S113030064009091650018161906FCF48091680049
S11303109091690018161906C4F4809162009091B6
S11303206300181619068CF48091600090916100A6
S11303301816190654F080916A0090916B001816F3
S113034019061CF0CFDEC7DE0895809164009091F9
S1130350650018161906FCF08091680090916900F8
S113036018161906C4F08091620090916300181663
S113037019068CF48091600090916100181619069A
S113038054F480916A0090916B00181619061CF4BD
S1130390A9DE9ADE08958091640090916500181694
S11303A01906FCF4809168009091690018161906EA
S11303B0C4F48091620090916300181619068CF0C1
S11303C080916000909161001816190654F0809194
S11303D06A0090916B00181619061CF083DE7BDE10
S11303E00895809164009091650018161906FCF038
S11303F0809168009091690018161906C4F08091E4
S1130400620090916300181619068CF080916000C8
S1130410909161001816190654F480916A00909125
S11304206B00181619061CF45DDE4EDE08958091EB
S113043064009091650018161906FCF0809168001C
S11304409091690018161906C4F080916200909189
S11304506300181619068CF0809160009091610079
S11304601816190654F080916A0090916B001816C2
S113047019061CF037DE2CDE32DE0895809164000C
S11304809091650018161906FCF48091680090910B
S1130490690018161906C4F08091620090916300F7
S11304A0181619068CF0809160009091610018165E
S11304B0190654F080916A0090916B001816190681
S11304C01CF010DE01DE08958091640090916500B7
S11304D018161906FCF080916800909169001816AE
S11304E01906C4F4809162009091630018161906ED
S11304F08CF080916000909161001816190654F0F8
S113050080916A0090916B00181619061CF0EADDC0
S1130510E2DD089580916400909165001816190633
S1130520FCF0809168009091690018161906C4F0D7
S11305308091620090916300181619068CF48091E2
S11305406000909161001816190654F080916A00B9
S113055090916B00181619061CF0C4DDB7DD0895E0
S1130560809164009091650018161906FCF0809142
S113057068009091690018161906C4F08091620011
S113058090916300181619068CF080916000909188
S113059061001816190654F480916A0090916B005A
S11305A0181619061CF09EDD98DD089580916400EC
S11305B0909165001816190604F1809168009091D5
S11305C0690018161906CCF08091620090916300BE
S11305D01816190694F08091600090916100181625
S11305E019065CF080916A0090916B001816190648
S11305F024F478DD69DD6FDD0895809164009091C5
S1130600650018161906FCF0809168009091690045
S113061018161906C4F080916200909163001816B0
S113062019068CF0809160009091610018161906EB
S113063054F080916A0090916B00181619061CF012
S113064051DD46DD4CDD089578948FE081BB07DDF4
S113065029DD80B390E08071907090936500809361
S1130660640080B390E080729070909369008093EE
S1130670680080B390E080749070909363008093DE
S1130680620080B390E080789070909361008093D2
S1130690600086B390E08170907090936B008093BB
S11306A06A0085E005DD9093670080936600809181
S11306B06600909167009BBD8ABDE0DECACFF894C6
S10506C0FFCF66
S9030000FC
