S01D00006C696E655F666F6C6C6F7765725F76345F746573742E737265636E
S113000012C02CC02BC02AC029C028C027C026C0BB
S113001025C024C023C022C021C020C01FC01EC0D0
S11300201DC01CC01BC011241FBECFE5D4E0DEBF21
S1130030CDBF10E0A0E6B0E0E6E6FFE002C0059028
S11300400D92A036B107D9F710E0A0E6B0E001C0E8
S11300501D92AE36B107E1F749D783C7D1CFB99A1C
S113006088EE93E097BD86BD8FB580688FBD8FB550
S113007082608FBD8EB588618EBD8EB582608EBD67
S1130080089587B93E9A3D9886B1876086B9379AB4
S113009024B135B1932F80E0820F911D369A3699A1
S11300A0FECF08953D9886B1876086B9379A089542
S11300B087B93E9A369A3699FECF24B135B1932F3B
S11300C080E0820F911D0895909A0895919A089561
S11300D082B382BB0895939A0895929A089582B345
S11300E082BB089512BA08958091640090916500CE
S11300F01816190604F180916A0090916B00181685
S11301001906CCF0809162009091630018161906CC
S113011094F48091600090916100181619065CF0C7
S113012080916C0090916D001816190624F0DADFA6
S1130130CBDFD1DF0895809164009091650018169B
S11301401906FCF080916A0090916B00181619064C
S1130150C4F08091620090916300181619068CF423
S113016080916000909161001816190654F48091F2
S11301706C0090916D00181619061CF0B3DFA4DF13
S11301800895809164009091650018161906FCF09A
S113019080916A0090916B0018161906C4F480913E
S11301A0620090916300181619068CF48091600027
S11301B0909161001816190654F080916C0090918A
S11301C06D00181619061CF08DDF85DF08958091E7
S11301D064009091650018161906FCF080916A007D
S11301E090916B0018161906C4F4809162009091E6
S11301F06300181619068CF08091600090916100DC
S11302001816190654F080916C0090916D00181620
S113021019061CF067DF5FDF0895809164009091F8
S1130220650018161906FCF080916A0090916B0025
S113023018161906C4F08091620090916300181694
S113024019068CF0809160009091610018161906CF
S113025054F480916C0090916D00181619061CF0EE
S113026041DF32DF08958091640090916500181693
S11302701906FCF080916A0090916B00181619061B
S1130280C4F08091620090916300181619068CF0F6
S113029080916000909161001816190654F08091C5
S11302A06C0090916D00181619061CF41BDF13DF07
S11302B00895809164009091650018161906FCF465
S11302C080916A0090916B0018161906C4F0809111
S11302D0620090916300181619068CF080916000FA
S11302E0909161001816190654F080916C00909159
S11302F06D00181619061CF0F5DEE6DE08958091EF
S113030064009091650018161906FCF480916A0047
S113031090916B0018161906C4F4809162009091B4
S11303206300181619068CF48091600090916100A6
S11303301816190654F080916C0090916D001816EF
S113034019061CF0CFDEC7DE0895809164009091F9
S1130350650018161906FCF080916A0090916B00F4
S113036018161906C4F08091620090916300181663
S113037019068CF48091600090916100181619069A
S113038054F480916C0090916D00181619061CF4B9
S1130390A9DE9ADE08958091640090916500181694
S11303A01906FCF480916A0090916B0018161906E6
S11303B0C4F48091620090916300181619068CF0C1
S11303C080916000909161001816190654F0809194
S11303D06C0090916D00181619061CF083DE7BDE0C
S11303E00895809164009091650018161906FCF038
S11303F080916A0090916B0018161906C4F08091E0
S1130400620090916300181619068CF080916000C8
S1130410909161001816190654F480916C00909123
S11304206D00181619061CF45DDE4EDE08958091E9
S113043064009091650018161906FCF080916A001A
S113044090916B0018161906C4F080916200909187
S11304506300181619068CF0809160009091610079
S11304601816190654F080916C0090916D001816BE
S113047019061CF037DE2CDE32DE0895809164000C
S11304809091650018161906F4F480916A00909111
S11304906B0018161906BCF08091620090916300FD
S11304A01816190684F08091600090916100181666
S11304B019064CF080916C0090916D001816190685
S11304C014F010DE08DE8091640090916500181627
S11304D01906F4F080916A0090916B0018161906C1
S11304E0BCF080916200909163001816190684F0A4
S11304F08091600090916100181619064CF080916B
S11305006C0090916D001816190614F4EBDDDCDD17
S1130510809164009091650018161906F4F080919A
S11305206A0090916B0018161906BCF48091620061
S1130530909163001816190684F0809160009091E0
S11305406100181619064CF080916C0090916D00B2
S11305501816190614F0C6DDBEDD80916400909172
S1130560650018161906F4F080916A0090916B00EA
S113057018161906BCF08091620090916300181659
S1130580190684F080916000909161001816190694
S11305904CF480916C0090916D001816190614F0BB
S11305A0A1DD92DD80916400909165001816190612
S11305B0FCF080916A0090916B0018161906C4F043
S11305C08091620090916300181619068CF4809152
S11305D06000909161001816190654F080916C0027
S11305E090916D00181619061CF07CDD6DDD73DD2D
S11305F0809164009091650018161906F4F08091BA
S11306006A0090916B0018161906BCF08091620084
S1130610909163001816190684F0809160009091FF
S11306206100181619064CF480916C0090916D00CD
S11306301816190614F456DD47DD80916400909174
S1130640650018161906F4F080916A0090916B0009
S113065018161906BCF08091620090916300181678
S1130660190684F4809160009091610018161906AF
S11306704CF480916C0090916D001816190614F4D6
S113068031DD22DD80916400909165001816190611
S1130690F4F080916A0090916B0018161906BCF072
S11306A080916200909163001816190684F4809179
S11306B0600090916100181619064CF480916C004A
S11306C090916D001816190614F00CDDFDDC809174
S11306D064009091650018161906F4F480916A007C
S11306E090916B0018161906BCF4809162009091E9
S11306F063001816190684F08091600090916100DF
S1130700181619064CF080916C0090916D00181623
S1130710190614F0E7DCDFDC809164009091650039
S113072018161906F4F480916A0090916B0018165B
S11307301906BCF4809162009091630018161906A2
S113074084F48091600090916100181619064CF0B1
S113075080916C0090916D001816190614F0C2DC9B
S1130760BADC809164009091650018161906FCF0BB
S113077080916A0090916B0018161906C4F4809158
S1130780620090916300181619068CF48091600041
S1130790909161001816190654F080916C009091A4
S11307A06D00181619061CF09DDC95DC08958091E7
S11307B064009091650018161906FCF080916A0097
S11307C090916B0018161906C4F080916200909104
S11307D06300181619068CF08091600090916100F6
S11307E01816190654F080916C0090916D0018163B
S11307F019061CF077DC6CDC72DC089580916400CF
S113080090916500181619062CF580916A00909154
S11308106B0018161906F4F0809162009091630041
S113082018161906BCF080916000909161001816AA
S1130830190684F080916C0090916D0018161906C9
S11308404CF050DC48DC82E090E0909367008093A9
S11308506600089580916400909165001816190649
S11308602CF180916A0090916B0018161906F4F02F
S1130870809162009091630018161906BCF0809173
S11308806000909161001816190684F080916C0044
S113089090916D00181619064CF424DC15DC81E0E7
S11308A090E09093670080936600089580916400BF
S11308B090916500181619061CF180916A009091B8
S11308C06B0018161906E4F480916200909163009D
S11308D018161906ACF0809160009091610018160A
S11308E0190674F080916C0090916D001816190629
S11308F03CF0F8DBF0DB109267001092660008957C
S11309008091640090916500181619061CF180917D
S11309106A0090916B0018161906E4F08091620049
S11309209091630018161906ACF0809160009091C4
S113093061001816190674F480916C0090916D0092
S1130940181619063CF0CEDBBFDB1092670010923C
S11309506600089580916400909165001816190648
S113096024F180916A0090916B0018161906ECF03E
S1130970809162009091630018161906B4F4809176
S1130980600090916100181619067CF080916C004B
S113099090916D001816190644F0A4DB95DB9BDBDF
S11309A010926700109266000895809164009091FF
S11309B065001816190624F180916A0090916B0065
S11309C018161906ECF480916200909163001816D1
S11309D01906B4F48091600090916100181619060C
S11309E07CF480916C0090916D001816190644F007
S11309F079DB6ADB70DB1092670010926600089561
S1130A008091640090916500181619062CF180916C
S1130A106A0090916B0018161906F4F08091620038
S1130A209091630018161906BCF0809160009091B3
S1130A3061001816190684F480916C0090916D0081
S1130A40181619064CF44EDB3FDB81E090E09093DE
S1130A50670080936600089580916400909165001A
S1130A60181619061CF180916A0090916B001816F3
S1130A701906E4F08091620090916300181619063B
S1130A80ACF480916000909161001816190674F41A
S1130A9080916C0090916D00181619063CF422DBCD
S1130AA013DB109267001092660008958091640031
S1130AB090916500181619061CF180916A009091B6
S1130AC06B0018161906E4F080916200909163009F
S1130AD018161906ACF48091600090916100181604
S1130AE0190674F480916C0090916D001816190623
S1130AF03CF0F8DAE9DA1092670010926600089583
S1130B008091640090916500181619062CF5809167
S1130B106A0090916B0018161906F4F48091620033
S1130B209091630018161906BCF0809160009091B2
S1130B3061001816190684F080916C0090916D0084
S1130B40181619064CF0CEDAC6DA82E090E09093DB
S1130B506700809366000895809164009091650019
S1130B60181619061CF180916A0090916B001816F2
S1130B701906E4F480916200909163001816190636
S1130B80ACF480916000909161001816190674F01D
S1130B9080916C0090916D00181619063CF0A2DA51
S1130BA09ADA1092670010926600089580916400AA
S1130BB090916500181619061CF580916A009091B1
S1130BC06B0018161906E4F480916200909163009A
S1130BD018161906ACF48091600090916100181603
S1130BE0190674F080916C0090916D001816190626
S1130BF03CF078DA70DA109267001092660008957B
S1130C0080916600909167008130910579F520917B
S1130C106400309165001216130644F180916A0055
S1130C2090916B00181619060CF44FC08091620065
S1130C3090916300181619060CF447C08091600067
S1130C4090916100181619060CF43FC080916C0055
S1130C5090916D0018161906C4F144DA35DA81E072
S1130C6090E0909367008093660008958230910528
S1130C7061F58091640090916500181619062CF1B5
S1130C8080916A0090916B0018161906F4F0809117
S1130C9062009091630018161906BCF08091600000
S1130CA0909161001816190684F080916C0090915F
S1130CB06D00181619064CF015DA0DDA82E090E092
S1130CC090936700809366000895809164009091EA
S1130CD06500181619061CF580916A0090916B0046
S1130CE018161906E4F480916200909163001816B6
S1130CF01906ACF4809160009091610018161906F1
S1130D0074F480916C0090916D00181619063CF4EF
S1130D10E9D9DED9E4D910926700109266000895EB
S1130D20809164009091650018161906FCF4809176
S1130D306A0090916B0018161906C4F08091620045
S1130D4090916300181619068CF0809160009091C0
S1130D5061001816190654F080916C0090916D0092
S1130D60181619061CF0BED9AFD9089580916400F5
S1130D709091650018161906FCF080916A00909114
S1130D806B0018161906C4F48091620090916300F8
S1130D90181619068CF08091600090916100181665
S1130DA0190654F080916C0090916D001816190684
S1130DB01CF098D990D908958091640090916500B1
S1130DC018161906FCF080916A0090916B001816B1
S1130DD01906C4F0809162009091630018161906F8
S1130DE08CF480916000909161001816190654F0FB
S1130DF080916C0090916D00181619061CF072D940
S1130E0065D90895809164009091650018161906BB
S1130E10FCF080916A0090916B0018161906C4F0DA
S1130E208091620090916300181619068CF08091ED
S1130E306000909161001816190654F480916C00BA
S1130E4090916D00181619061CF04CD946D90895D6
S1130E5080916400909165001816190604F1809140
S1130E606A0090916B0018161906CCF0809162000C
S1130E70909163001816190694F080916000909187
S1130E806100181619065CF080916C0090916D0059
S1130E901816190624F426D917D91DD90895809156
S1130EA064009091650018161906FCF080916A00A0
S1130EB090916B0018161906C4F08091620090910D
S1130EC06300181619068CF08091600090916100FF
S1130ED01816190654F080916C0090916D00181644
S1130EE019061CF0FFD8F4D8FAD8089578948FE046
S1130EF081BBB5D8D7D880B390E0807190709093BF
S1130F0065008093640080B390E080729070909349
S1130F106B0080936A0080B390E08074907090932B
S1130F2063008093620080B390E080789070909327
S1130F3061008093600086B390E08170907090931C
S1130F406D0080936C0085E0B3D890936900809322
S1130F50680080916800909169009BBD8ABD4EDC59
S1090F60CACFF894FFCF94
S9030000FC
